{
  "contractName": "EstuarySubscription",
  "abi": [
    {
      "inputs": [
        {
          "internalType": "string",
          "name": "name",
          "type": "string"
        },
        {
          "internalType": "string",
          "name": "symbol",
          "type": "string"
        },
        {
          "internalType": "string",
          "name": "uri",
          "type": "string"
        }
      ],
      "stateMutability": "nonpayable",
      "type": "constructor"
    },
    {
      "anonymous": false,
      "inputs": [
        {
          "indexed": true,
          "internalType": "address",
          "name": "account",
          "type": "address"
        },
        {
          "indexed": true,
          "internalType": "address",
          "name": "operator",
          "type": "address"
        },
        {
          "indexed": false,
          "internalType": "bool",
          "name": "approved",
          "type": "bool"
        }
      ],
      "name": "ApprovalForAll",
      "type": "event"
    },
    {
      "anonymous": false,
      "inputs": [
        {
          "indexed": true,
          "internalType": "address",
          "name": "previousOwner",
          "type": "address"
        },
        {
          "indexed": true,
          "internalType": "address",
          "name": "newOwner",
          "type": "address"
        }
      ],
      "name": "OwnershipTransferred",
      "type": "event"
    },
    {
      "anonymous": false,
      "inputs": [
        {
          "indexed": true,
          "internalType": "address",
          "name": "operator",
          "type": "address"
        },
        {
          "indexed": true,
          "internalType": "address",
          "name": "from",
          "type": "address"
        },
        {
          "indexed": true,
          "internalType": "address",
          "name": "to",
          "type": "address"
        },
        {
          "indexed": false,
          "internalType": "uint256[]",
          "name": "ids",
          "type": "uint256[]"
        },
        {
          "indexed": false,
          "internalType": "uint256[]",
          "name": "values",
          "type": "uint256[]"
        }
      ],
      "name": "TransferBatch",
      "type": "event"
    },
    {
      "anonymous": false,
      "inputs": [
        {
          "indexed": true,
          "internalType": "address",
          "name": "operator",
          "type": "address"
        },
        {
          "indexed": true,
          "internalType": "address",
          "name": "from",
          "type": "address"
        },
        {
          "indexed": true,
          "internalType": "address",
          "name": "to",
          "type": "address"
        },
        {
          "indexed": false,
          "internalType": "uint256",
          "name": "id",
          "type": "uint256"
        },
        {
          "indexed": false,
          "internalType": "uint256",
          "name": "value",
          "type": "uint256"
        }
      ],
      "name": "TransferSingle",
      "type": "event"
    },
    {
      "anonymous": false,
      "inputs": [
        {
          "indexed": false,
          "internalType": "string",
          "name": "value",
          "type": "string"
        },
        {
          "indexed": true,
          "internalType": "uint256",
          "name": "id",
          "type": "uint256"
        }
      ],
      "name": "URI",
      "type": "event"
    },
    {
      "inputs": [
        {
          "internalType": "address",
          "name": "account",
          "type": "address"
        },
        {
          "internalType": "uint256",
          "name": "id",
          "type": "uint256"
        }
      ],
      "name": "balanceOf",
      "outputs": [
        {
          "internalType": "uint256",
          "name": "",
          "type": "uint256"
        }
      ],
      "stateMutability": "view",
      "type": "function"
    },
    {
      "inputs": [
        {
          "internalType": "address[]",
          "name": "accounts",
          "type": "address[]"
        },
        {
          "internalType": "uint256[]",
          "name": "ids",
          "type": "uint256[]"
        }
      ],
      "name": "balanceOfBatch",
      "outputs": [
        {
          "internalType": "uint256[]",
          "name": "",
          "type": "uint256[]"
        }
      ],
      "stateMutability": "view",
      "type": "function"
    },
    {
      "inputs": [
        {
          "internalType": "address",
          "name": "account",
          "type": "address"
        },
        {
          "internalType": "address",
          "name": "operator",
          "type": "address"
        }
      ],
      "name": "isApprovedForAll",
      "outputs": [
        {
          "internalType": "bool",
          "name": "",
          "type": "bool"
        }
      ],
      "stateMutability": "view",
      "type": "function"
    },
    {
      "inputs": [],
      "name": "owner",
      "outputs": [
        {
          "internalType": "address",
          "name": "",
          "type": "address"
        }
      ],
      "stateMutability": "view",
      "type": "function"
    },
    {
      "inputs": [],
      "name": "renounceOwnership",
      "outputs": [],
      "stateMutability": "nonpayable",
      "type": "function"
    },
    {
      "inputs": [
        {
          "internalType": "address",
          "name": "from",
          "type": "address"
        },
        {
          "internalType": "address",
          "name": "to",
          "type": "address"
        },
        {
          "internalType": "uint256[]",
          "name": "ids",
          "type": "uint256[]"
        },
        {
          "internalType": "uint256[]",
          "name": "amounts",
          "type": "uint256[]"
        },
        {
          "internalType": "bytes",
          "name": "data",
          "type": "bytes"
        }
      ],
      "name": "safeBatchTransferFrom",
      "outputs": [],
      "stateMutability": "nonpayable",
      "type": "function"
    },
    {
      "inputs": [
        {
          "internalType": "address",
          "name": "from",
          "type": "address"
        },
        {
          "internalType": "address",
          "name": "to",
          "type": "address"
        },
        {
          "internalType": "uint256",
          "name": "id",
          "type": "uint256"
        },
        {
          "internalType": "uint256",
          "name": "amount",
          "type": "uint256"
        },
        {
          "internalType": "bytes",
          "name": "data",
          "type": "bytes"
        }
      ],
      "name": "safeTransferFrom",
      "outputs": [],
      "stateMutability": "nonpayable",
      "type": "function"
    },
    {
      "inputs": [
        {
          "internalType": "address",
          "name": "operator",
          "type": "address"
        },
        {
          "internalType": "bool",
          "name": "approved",
          "type": "bool"
        }
      ],
      "name": "setApprovalForAll",
      "outputs": [],
      "stateMutability": "nonpayable",
      "type": "function"
    },
    {
      "inputs": [
        {
          "internalType": "bytes4",
          "name": "interfaceId",
          "type": "bytes4"
        }
      ],
      "name": "supportsInterface",
      "outputs": [
        {
          "internalType": "bool",
          "name": "",
          "type": "bool"
        }
      ],
      "stateMutability": "view",
      "type": "function"
    },
    {
      "inputs": [],
      "name": "totalPlans",
      "outputs": [
        {
          "internalType": "uint256",
          "name": "",
          "type": "uint256"
        }
      ],
      "stateMutability": "view",
      "type": "function"
    },
    {
      "inputs": [
        {
          "internalType": "address",
          "name": "newOwner",
          "type": "address"
        }
      ],
      "name": "transferOwnership",
      "outputs": [],
      "stateMutability": "nonpayable",
      "type": "function"
    },
    {
      "inputs": [
        {
          "internalType": "uint256",
          "name": "",
          "type": "uint256"
        }
      ],
      "name": "uri",
      "outputs": [
        {
          "internalType": "string",
          "name": "",
          "type": "string"
        }
      ],
      "stateMutability": "view",
      "type": "function"
    },
    {
      "inputs": [
        {
          "internalType": "string",
          "name": "uri",
          "type": "string"
        }
      ],
      "name": "setURI",
      "outputs": [],
      "stateMutability": "nonpayable",
      "type": "function"
    },
    {
      "inputs": [
        {
          "internalType": "string",
          "name": "_name",
          "type": "string"
        },
        {
          "internalType": "string",
          "name": "uri",
          "type": "string"
        },
        {
          "internalType": "uint256",
          "name": "price",
          "type": "uint256"
        },
        {
          "internalType": "uint256",
          "name": "time",
          "type": "uint256"
        }
      ],
      "name": "addPlan",
      "outputs": [],
      "stateMutability": "nonpayable",
      "type": "function"
    },
    {
      "inputs": [
        {
          "internalType": "uint256",
          "name": "id",
          "type": "uint256"
        },
        {
          "internalType": "string",
          "name": "_name",
          "type": "string"
        },
        {
          "internalType": "string",
          "name": "uri",
          "type": "string"
        },
        {
          "internalType": "uint256",
          "name": "price",
          "type": "uint256"
        },
        {
          "internalType": "uint256",
          "name": "time",
          "type": "uint256"
        }
      ],
      "name": "updatePlan",
      "outputs": [],
      "stateMutability": "nonpayable",
      "type": "function"
    },
    {
      "inputs": [
        {
          "internalType": "uint256",
          "name": "planId",
          "type": "uint256"
        }
      ],
      "name": "subscribe",
      "outputs": [],
      "stateMutability": "payable",
      "type": "function"
    },
    {
      "inputs": [
        {
          "internalType": "address",
          "name": "user",
          "type": "address"
        }
      ],
      "name": "currentPlan",
      "outputs": [
        {
          "internalType": "uint256",
          "name": "",
          "type": "uint256"
        }
      ],
      "stateMutability": "view",
      "type": "function"
    },
    {
      "inputs": [
        {
          "internalType": "uint256",
          "name": "id",
          "type": "uint256"
        }
      ],
      "name": "tokenURI",
      "outputs": [
        {
          "internalType": "string",
          "name": "",
          "type": "string"
        }
      ],
      "stateMutability": "view",
      "type": "function"
    },
    {
      "inputs": [
        {
          "internalType": "uint256",
          "name": "id",
          "type": "uint256"
        }
      ],
      "name": "tokenSupply",
      "outputs": [
        {
          "internalType": "uint256",
          "name": "",
          "type": "uint256"
        }
      ],
      "stateMutability": "view",
      "type": "function"
    },
    {
      "inputs": [
        {
          "internalType": "uint256",
          "name": "id",
          "type": "uint256"
        }
      ],
      "name": "tokenPrice",
      "outputs": [
        {
          "internalType": "uint256",
          "name": "",
          "type": "uint256"
        }
      ],
      "stateMutability": "view",
      "type": "function"
    },
    {
      "inputs": [],
      "name": "totalSupply",
      "outputs": [
        {
          "internalType": "uint256",
          "name": "",
          "type": "uint256"
        }
      ],
      "stateMutability": "view",
      "type": "function"
    },
    {
      "inputs": [],
      "name": "balance",
      "outputs": [
        {
          "internalType": "uint256",
          "name": "",
          "type": "uint256"
        }
      ],
      "stateMutability": "view",
      "type": "function"
    },
    {
      "inputs": [
        {
          "internalType": "uint256",
          "name": "amount",
          "type": "uint256"
        }
      ],
      "name": "withdraw",
      "outputs": [],
      "stateMutability": "nonpayable",
      "type": "function"
    }
  ],
  "bytecode": "0x60806040523480156200001157600080fd5b50604051620046ec380380620046ec8339818101604052810190620000379190620003aa565b8062000049816200007360201b60201c565b506200006a6200005e6200008f60201b60201c565b6200009760201b60201c565b505050620004c7565b80600290805190602001906200008b9291906200015d565b5050565b600033905090565b6000600360009054906101000a900473ffffffffffffffffffffffffffffffffffffffff16905081600360006101000a81548173ffffffffffffffffffffffffffffffffffffffff021916908373ffffffffffffffffffffffffffffffffffffffff1602179055508173ffffffffffffffffffffffffffffffffffffffff168173ffffffffffffffffffffffffffffffffffffffff167f8be0079c531659141344cd1fd0a4f28419497f9722a3daafe3b4186f6b6457e060405160405180910390a35050565b8280546200016b9062000492565b90600052602060002090601f0160209004810192826200018f5760008555620001db565b82601f10620001aa57805160ff1916838001178555620001db565b82800160010185558215620001db579182015b82811115620001da578251825591602001919060010190620001bd565b5b509050620001ea9190620001ee565b5090565b5b8082111562000209576000816000905550600101620001ef565b5090565b6000604051905090565b600080fd5b600080fd5b600080fd5b600080fd5b6000601f19601f8301169050919050565b7f4e487b7100000000000000000000000000000000000000000000000000000000600052604160045260246000fd5b62000276826200022b565b810181811067ffffffffffffffff821117156200029857620002976200023c565b5b80604052505050565b6000620002ad6200020d565b9050620002bb82826200026b565b919050565b600067ffffffffffffffff821115620002de57620002dd6200023c565b5b620002e9826200022b565b9050602081019050919050565b60005b8381101562000316578082015181840152602081019050620002f9565b8381111562000326576000848401525b50505050565b6000620003436200033d84620002c0565b620002a1565b90508281526020810184848401111562000362576200036162000226565b5b6200036f848285620002f6565b509392505050565b600082601f8301126200038f576200038e62000221565b5b8151620003a18482602086016200032c565b91505092915050565b600080600060608486031215620003c657620003c562000217565b5b600084015167ffffffffffffffff811115620003e757620003e66200021c565b5b620003f58682870162000377565b935050602084015167ffffffffffffffff8111156200041957620004186200021c565b5b620004278682870162000377565b925050604084015167ffffffffffffffff8111156200044b576200044a6200021c565b5b620004598682870162000377565b9150509250925092565b7f4e487b7100000000000000000000000000000000000000000000000000000000600052602260045260246000fd5b60006002820490506001821680620004ab57607f821691505b602082108103620004c157620004c062000463565b5b50919050565b61421580620004d76000396000f3fe60806040526004361061013f5760003560e01c806367196e0b116100b6578063c87b56dd1161006f578063c87b56dd1461045e578063d4ddce8a1461049b578063e985e9c5146104d8578063f242432a14610515578063f2fde38b1461053e578063fb649156146105675761013f565b806367196e0b14610362578063715018a61461038b5780638da5cb5b146103a2578063981013c7146103cd578063a22cb4651461040a578063b69ef8a8146104335761013f565b806318160ddd1161010857806318160ddd146102405780632693ebf21461026b5780632a6d1aa4146102a85780632e1a7d4d146102d35780632eb2c2d6146102fc5780634e1273f4146103255761013f565b8062fdd58e1461014457806301ffc9a71461018157806302fe5305146101be5780630e89341c146101e75780630f574ba714610224575b600080fd5b34801561015057600080fd5b5061016b60048036038101906101669190612889565b610590565b60405161017891906128d8565b60405180910390f35b34801561018d57600080fd5b506101a860048036038101906101a3919061294b565b610658565b6040516101b59190612993565b60405180910390f35b3480156101ca57600080fd5b506101e560048036038101906101e09190612af4565b61073a565b005b3480156101f357600080fd5b5061020e60048036038101906102099190612b3d565b61074e565b60405161021b9190612bf2565b60405180910390f35b61023e60048036038101906102399190612b3d565b6107e2565b005b34801561024c57600080fd5b50610255610b9b565b60405161026291906128d8565b60405180910390f35b34801561027757600080fd5b50610292600480360381019061028d9190612b3d565b610ba5565b60405161029f91906128d8565b60405180910390f35b3480156102b457600080fd5b506102bd610c18565b6040516102ca91906128d8565b60405180910390f35b3480156102df57600080fd5b506102fa60048036038101906102f59190612b3d565b610c1e565b005b34801561030857600080fd5b50610323600480360381019061031e9190612d7d565b610cdd565b005b34801561033157600080fd5b5061034c60048036038101906103479190612f0f565b610d7e565b6040516103599190613045565b60405180910390f35b34801561036e57600080fd5b5061038960048036038101906103849190613067565b610e97565b005b34801561039757600080fd5b506103a0610f72565b005b3480156103ae57600080fd5b506103b7610f86565b6040516103c49190613115565b60405180910390f35b3480156103d957600080fd5b506103f460048036038101906103ef9190613130565b610fb0565b60405161040191906128d8565b60405180910390f35b34801561041657600080fd5b50610431600480360381019061042c9190613189565b6110ea565b005b34801561043f57600080fd5b50610448611100565b60405161045591906128d8565b60405180910390f35b34801561046a57600080fd5b5061048560048036038101906104809190612b3d565b611110565b6040516104929190612bf2565b60405180910390f35b3480156104a757600080fd5b506104c260048036038101906104bd9190612b3d565b61120b565b6040516104cf91906128d8565b60405180910390f35b3480156104e457600080fd5b506104ff60048036038101906104fa91906131c9565b61127e565b60405161050c9190612993565b60405180910390f35b34801561052157600080fd5b5061053c60048036038101906105379190613209565b611312565b005b34801561054a57600080fd5b5061056560048036038101906105609190613130565b6113b3565b005b34801561057357600080fd5b5061058e600480360381019061058991906132a0565b611436565b005b60008073ffffffffffffffffffffffffffffffffffffffff168373ffffffffffffffffffffffffffffffffffffffff1603610600576040517f08c379a00000000000000000000000000000000000000000000000000000000081526004016105f7906133c5565b60405180910390fd5b60008083815260200190815260200160002060008473ffffffffffffffffffffffffffffffffffffffff1673ffffffffffffffffffffffffffffffffffffffff16815260200190815260200160002054905092915050565b60007fd9b67a26000000000000000000000000000000000000000000000000000000007bffffffffffffffffffffffffffffffffffffffffffffffffffffffff1916827bffffffffffffffffffffffffffffffffffffffffffffffffffffffff1916148061072357507f0e89341c000000000000000000000000000000000000000000000000000000007bffffffffffffffffffffffffffffffffffffffffffffffffffffffff1916827bffffffffffffffffffffffffffffffffffffffffffffffffffffffff1916145b806107335750610732826114f0565b5b9050919050565b61074261155a565b61074b816115d8565b50565b60606002805461075d90613414565b80601f016020809104026020016040519081016040528092919081815260200182805461078990613414565b80156107d65780601f106107ab576101008083540402835291602001916107d6565b820191906000526020600020905b8154815290600101906020018083116107b957829003601f168201915b50505050509050919050565b8060065481111580156107f55750600081115b610834576040517f08c379a000000000000000000000000000000000000000000000000000000000815260040161082b90613491565b60405180910390fd5b60011515610841836115f2565b151514610883576040517f08c379a000000000000000000000000000000000000000000000000000000000815260040161087a90613523565b60405180910390fd5b600460008381526020019081526020016000206003015434146108db576040517f08c379a00000000000000000000000000000000000000000000000000000000081526004016108d2906135b5565b60405180910390fd5b610905600160046000858152602001908152602001600020600201546116cb90919063ffffffff16565b6004600084815260200190815260200160002060020181905550604051806040016040528083815260200142815250600560003373ffffffffffffffffffffffffffffffffffffffff1673ffffffffffffffffffffffffffffffffffffffff1681526020019081526020016000206000820151816000015560208201518160010155905050610a2233600560003373ffffffffffffffffffffffffffffffffffffffff1673ffffffffffffffffffffffffffffffffffffffff16815260200190815260200160002060000154610a1d33600560003373ffffffffffffffffffffffffffffffffffffffff1673ffffffffffffffffffffffffffffffffffffffff16815260200190815260200160002060000154610590565b6116e1565b610ad8610a7133600560003373ffffffffffffffffffffffffffffffffffffffff1673ffffffffffffffffffffffffffffffffffffffff16815260200190815260200160002060000154610590565b60046000600560003373ffffffffffffffffffffffffffffffffffffffff1673ffffffffffffffffffffffffffffffffffffffff1681526020019081526020016000206000015481526020019081526020016000206002015461192790919063ffffffff16565b60046000600560003373ffffffffffffffffffffffffffffffffffffffff1673ffffffffffffffffffffffffffffffffffffffff16815260200190815260200160002060000154815260200190815260200160002060020181905550610b50338360016040518060200160405280600081525061193d565b3373ffffffffffffffffffffffffffffffffffffffff166108fc349081150290604051600060405180830381858888f19350505050158015610b96573d6000803e3d6000fd5b505050565b6000600654905090565b6000816006548111158015610bba5750600081115b610bf9576040517f08c379a0000000000000000000000000000000000000000000000000000000008152600401610bf090613491565b60405180910390fd5b6004600084815260200190815260200160002060020154915050919050565b60065481565b610c2661155a565b6000610c30610f86565b73ffffffffffffffffffffffffffffffffffffffff1682604051610c5390613606565b60006040518083038185875af1925050503d8060008114610c90576040519150601f19603f3d011682016040523d82523d6000602084013e610c95565b606091505b5050905080610cd9576040517f08c379a0000000000000000000000000000000000000000000000000000000008152600401610cd090613667565b60405180910390fd5b5050565b610ce5611aed565b73ffffffffffffffffffffffffffffffffffffffff168573ffffffffffffffffffffffffffffffffffffffff161480610d2b5750610d2a85610d25611aed565b61127e565b5b610d6a576040517f08c379a0000000000000000000000000000000000000000000000000000000008152600401610d61906136f9565b60405180910390fd5b610d778585858585611af5565b5050505050565b60608151835114610dc4576040517f08c379a0000000000000000000000000000000000000000000000000000000008152600401610dbb9061378b565b60405180910390fd5b6000835167ffffffffffffffff811115610de157610de06129c9565b5b604051908082528060200260200182016040528015610e0f5781602001602082028036833780820191505090505b50905060005b8451811015610e8c57610e5c858281518110610e3457610e336137ab565b5b6020026020010151858381518110610e4f57610e4e6137ab565b5b6020026020010151610590565b828281518110610e6f57610e6e6137ab565b5b60200260200101818152505080610e8590613809565b9050610e15565b508091505092915050565b610e9f61155a565b610eb560016006546116cb90919063ffffffff16565b6006819055506000610ed360016006546116cb90919063ffffffff16565b90506040518060a001604052808681526020018581526020016000815260200184815260200183815250600460008381526020019081526020016000206000820151816000019080519060200190610f2c92919061273e565b506020820151816001019080519060200190610f4992919061273e565b506040820151816002015560608201518160030155608082015181600401559050505050505050565b610f7a61155a565b610f846000611e16565b565b6000600360009054906101000a900473ffffffffffffffffffffffffffffffffffffffff16905090565b600060046000600560003373ffffffffffffffffffffffffffffffffffffffff1673ffffffffffffffffffffffffffffffffffffffff16815260200190815260200160002060000154815260200190815260200160002060040154611060600560003373ffffffffffffffffffffffffffffffffffffffff1673ffffffffffffffffffffffffffffffffffffffff168152602001908152602001600020600101544261192790919063ffffffff16565b106110a0576040517f08c379a00000000000000000000000000000000000000000000000000000000081526004016110979061389d565b60405180910390fd5b600560008373ffffffffffffffffffffffffffffffffffffffff1673ffffffffffffffffffffffffffffffffffffffff168152602001908152602001600020600001549050919050565b6110fc6110f5611aed565b8383611edc565b5050565b600061110a61155a565b47905090565b60608160065481111580156111255750600081115b611164576040517f08c379a000000000000000000000000000000000000000000000000000000000815260040161115b90613491565b60405180910390fd5b60046000848152602001908152602001600020600101805461118590613414565b80601f01602080910402602001604051908101604052809291908181526020018280546111b190613414565b80156111fe5780601f106111d3576101008083540402835291602001916111fe565b820191906000526020600020905b8154815290600101906020018083116111e157829003601f168201915b5050505050915050919050565b60008160065481111580156112205750600081115b61125f576040517f08c379a000000000000000000000000000000000000000000000000000000000815260040161125690613491565b60405180910390fd5b6004600084815260200190815260200160002060030154915050919050565b6000600160008473ffffffffffffffffffffffffffffffffffffffff1673ffffffffffffffffffffffffffffffffffffffff16815260200190815260200160002060008373ffffffffffffffffffffffffffffffffffffffff1673ffffffffffffffffffffffffffffffffffffffff16815260200190815260200160002060009054906101000a900460ff16905092915050565b61131a611aed565b73ffffffffffffffffffffffffffffffffffffffff168573ffffffffffffffffffffffffffffffffffffffff161480611360575061135f8561135a611aed565b61127e565b5b61139f576040517f08c379a0000000000000000000000000000000000000000000000000000000008152600401611396906136f9565b60405180910390fd5b6113ac8585858585612048565b5050505050565b6113bb61155a565b600073ffffffffffffffffffffffffffffffffffffffff168173ffffffffffffffffffffffffffffffffffffffff160361142a576040517f08c379a00000000000000000000000000000000000000000000000000000000081526004016114219061392f565b60405180910390fd5b61143381611e16565b50565b61143e61155a565b6040518060a0016040528085815260200184815260200160046000888152602001908152602001600020600201548152602001838152602001828152506004600087815260200190815260200160002060008201518160000190805190602001906114aa92919061273e565b5060208201518160010190805190602001906114c792919061273e565b506040820151816002015560608201518160030155608082015181600401559050505050505050565b60007f01ffc9a7000000000000000000000000000000000000000000000000000000007bffffffffffffffffffffffffffffffffffffffffffffffffffffffff1916827bffffffffffffffffffffffffffffffffffffffffffffffffffffffff1916149050919050565b611562611aed565b73ffffffffffffffffffffffffffffffffffffffff16611580610f86565b73ffffffffffffffffffffffffffffffffffffffff16146115d6576040517f08c379a00000000000000000000000000000000000000000000000000000000081526004016115cd9061399b565b60405180910390fd5b565b80600290805190602001906115ee92919061273e565b5050565b600081600560003373ffffffffffffffffffffffffffffffffffffffff1673ffffffffffffffffffffffffffffffffffffffff16815260200190815260200160002060000154036116c15760046000838152602001908152602001600020600401546116a9600560003373ffffffffffffffffffffffffffffffffffffffff1673ffffffffffffffffffffffffffffffffffffffff168152602001908152602001600020600101544261192790919063ffffffff16565b10156116b857600090506116c6565b600190506116c6565b600190505b919050565b600081836116d991906139bb565b905092915050565b600073ffffffffffffffffffffffffffffffffffffffff168373ffffffffffffffffffffffffffffffffffffffff1603611750576040517f08c379a000000000000000000000000000000000000000000000000000000000815260040161174790613a83565b60405180910390fd5b600061175a611aed565b90506000611767846122e3565b90506000611774846122e3565b90506117948387600085856040518060200160405280600081525061235d565b600080600087815260200190815260200160002060008873ffffffffffffffffffffffffffffffffffffffff1673ffffffffffffffffffffffffffffffffffffffff1681526020019081526020016000205490508481101561182b576040517f08c379a000000000000000000000000000000000000000000000000000000000815260040161182290613b15565b60405180910390fd5b84810360008088815260200190815260200160002060008973ffffffffffffffffffffffffffffffffffffffff1673ffffffffffffffffffffffffffffffffffffffff16815260200190815260200160002081905550600073ffffffffffffffffffffffffffffffffffffffff168773ffffffffffffffffffffffffffffffffffffffff168573ffffffffffffffffffffffffffffffffffffffff167fc3d58168c5ae7397731d063d5bbf3d657854427343f4c083240f7aacaa2d0f6289896040516118f8929190613b35565b60405180910390a461191e84886000868660405180602001604052806000815250612365565b50505050505050565b600081836119359190613b5e565b905092915050565b600073ffffffffffffffffffffffffffffffffffffffff168473ffffffffffffffffffffffffffffffffffffffff16036119ac576040517f08c379a00000000000000000000000000000000000000000000000000000000081526004016119a390613c04565b60405180910390fd5b60006119b6611aed565b905060006119c3856122e3565b905060006119d0856122e3565b90506119e18360008985858961235d565b8460008088815260200190815260200160002060008973ffffffffffffffffffffffffffffffffffffffff1673ffffffffffffffffffffffffffffffffffffffff1681526020019081526020016000206000828254611a4091906139bb565b925050819055508673ffffffffffffffffffffffffffffffffffffffff16600073ffffffffffffffffffffffffffffffffffffffff168473ffffffffffffffffffffffffffffffffffffffff167fc3d58168c5ae7397731d063d5bbf3d657854427343f4c083240f7aacaa2d0f628989604051611abe929190613b35565b60405180910390a4611ad583600089858589612365565b611ae48360008989898961236d565b50505050505050565b600033905090565b8151835114611b39576040517f08c379a0000000000000000000000000000000000000000000000000000000008152600401611b3090613c96565b60405180910390fd5b600073ffffffffffffffffffffffffffffffffffffffff168473ffffffffffffffffffffffffffffffffffffffff1603611ba8576040517f08c379a0000000000000000000000000000000000000000000000000000000008152600401611b9f90613d28565b60405180910390fd5b6000611bb2611aed565b9050611bc281878787878761235d565b60005b8451811015611d73576000858281518110611be357611be26137ab565b5b602002602001015190506000858381518110611c0257611c016137ab565b5b60200260200101519050600080600084815260200190815260200160002060008b73ffffffffffffffffffffffffffffffffffffffff1673ffffffffffffffffffffffffffffffffffffffff16815260200190815260200160002054905081811015611ca3576040517f08c379a0000000000000000000000000000000000000000000000000000000008152600401611c9a90613dba565b60405180910390fd5b81810360008085815260200190815260200160002060008c73ffffffffffffffffffffffffffffffffffffffff1673ffffffffffffffffffffffffffffffffffffffff168152602001908152602001600020819055508160008085815260200190815260200160002060008b73ffffffffffffffffffffffffffffffffffffffff1673ffffffffffffffffffffffffffffffffffffffff1681526020019081526020016000206000828254611d5891906139bb565b9250508190555050505080611d6c90613809565b9050611bc5565b508473ffffffffffffffffffffffffffffffffffffffff168673ffffffffffffffffffffffffffffffffffffffff168273ffffffffffffffffffffffffffffffffffffffff167f4a39dc06d4c0dbc64b70af90fd698a233a518aa5d07e595d983b8c0526c8f7fb8787604051611dea929190613dda565b60405180910390a4611e00818787878787612365565b611e0e818787878787612544565b505050505050565b6000600360009054906101000a900473ffffffffffffffffffffffffffffffffffffffff16905081600360006101000a81548173ffffffffffffffffffffffffffffffffffffffff021916908373ffffffffffffffffffffffffffffffffffffffff1602179055508173ffffffffffffffffffffffffffffffffffffffff168173ffffffffffffffffffffffffffffffffffffffff167f8be0079c531659141344cd1fd0a4f28419497f9722a3daafe3b4186f6b6457e060405160405180910390a35050565b8173ffffffffffffffffffffffffffffffffffffffff168373ffffffffffffffffffffffffffffffffffffffff1603611f4a576040517f08c379a0000000000000000000000000000000000000000000000000000000008152600401611f4190613e83565b60405180910390fd5b80600160008573ffffffffffffffffffffffffffffffffffffffff1673ffffffffffffffffffffffffffffffffffffffff16815260200190815260200160002060008473ffffffffffffffffffffffffffffffffffffffff1673ffffffffffffffffffffffffffffffffffffffff16815260200190815260200160002060006101000a81548160ff0219169083151502179055508173ffffffffffffffffffffffffffffffffffffffff168373ffffffffffffffffffffffffffffffffffffffff167f17307eab39ab6107e8899845ad3d59bd9653f200f220920489ca2b5937696c318360405161203b9190612993565b60405180910390a3505050565b600073ffffffffffffffffffffffffffffffffffffffff168473ffffffffffffffffffffffffffffffffffffffff16036120b7576040517f08c379a00000000000000000000000000000000000000000000000000000000081526004016120ae90613d28565b60405180910390fd5b60006120c1611aed565b905060006120ce856122e3565b905060006120db856122e3565b90506120eb83898985858961235d565b600080600088815260200190815260200160002060008a73ffffffffffffffffffffffffffffffffffffffff1673ffffffffffffffffffffffffffffffffffffffff16815260200190815260200160002054905085811015612182576040517f08c379a000000000000000000000000000000000000000000000000000000000815260040161217990613dba565b60405180910390fd5b85810360008089815260200190815260200160002060008b73ffffffffffffffffffffffffffffffffffffffff1673ffffffffffffffffffffffffffffffffffffffff168152602001908152602001600020819055508560008089815260200190815260200160002060008a73ffffffffffffffffffffffffffffffffffffffff1673ffffffffffffffffffffffffffffffffffffffff168152602001908152602001600020600082825461223791906139bb565b925050819055508773ffffffffffffffffffffffffffffffffffffffff168973ffffffffffffffffffffffffffffffffffffffff168573ffffffffffffffffffffffffffffffffffffffff167fc3d58168c5ae7397731d063d5bbf3d657854427343f4c083240f7aacaa2d0f628a8a6040516122b4929190613b35565b60405180910390a46122ca848a8a86868a612365565b6122d8848a8a8a8a8a61236d565b505050505050505050565b60606000600167ffffffffffffffff811115612302576123016129c9565b5b6040519080825280602002602001820160405280156123305781602001602082028036833780820191505090505b5090508281600081518110612348576123476137ab565b5b60200260200101818152505080915050919050565b505050505050565b505050505050565b61238c8473ffffffffffffffffffffffffffffffffffffffff1661271b565b1561253c578373ffffffffffffffffffffffffffffffffffffffff1663f23a6e6187878686866040518663ffffffff1660e01b81526004016123d2959493929190613ef8565b6020604051808303816000875af192505050801561240e57506040513d601f19601f8201168201806040525081019061240b9190613f67565b60015b6124b35761241a613fa1565b806308c379a003612476575061242e613fc3565b806124395750612478565b806040517f08c379a000000000000000000000000000000000000000000000000000000000815260040161246d9190612bf2565b60405180910390fd5b505b6040517f08c379a00000000000000000000000000000000000000000000000000000000081526004016124aa906140c5565b60405180910390fd5b63f23a6e6160e01b7bffffffffffffffffffffffffffffffffffffffffffffffffffffffff1916817bffffffffffffffffffffffffffffffffffffffffffffffffffffffff19161461253a576040517f08c379a000000000000000000000000000000000000000000000000000000000815260040161253190614157565b60405180910390fd5b505b505050505050565b6125638473ffffffffffffffffffffffffffffffffffffffff1661271b565b15612713578373ffffffffffffffffffffffffffffffffffffffff1663bc197c8187878686866040518663ffffffff1660e01b81526004016125a9959493929190614177565b6020604051808303816000875af19250505080156125e557506040513d601f19601f820116820180604052508101906125e29190613f67565b60015b61268a576125f1613fa1565b806308c379a00361264d5750612605613fc3565b80612610575061264f565b806040517f08c379a00000000000000000000000000000000000000000000000000000000081526004016126449190612bf2565b60405180910390fd5b505b6040517f08c379a0000000000000000000000000000000000000000000000000000000008152600401612681906140c5565b60405180910390fd5b63bc197c8160e01b7bffffffffffffffffffffffffffffffffffffffffffffffffffffffff1916817bffffffffffffffffffffffffffffffffffffffffffffffffffffffff191614612711576040517f08c379a000000000000000000000000000000000000000000000000000000000815260040161270890614157565b60405180910390fd5b505b505050505050565b6000808273ffffffffffffffffffffffffffffffffffffffff163b119050919050565b82805461274a90613414565b90600052602060002090601f01602090048101928261276c57600085556127b3565b82601f1061278557805160ff19168380011785556127b3565b828001600101855582156127b3579182015b828111156127b2578251825591602001919060010190612797565b5b5090506127c091906127c4565b5090565b5b808211156127dd5760008160009055506001016127c5565b5090565b6000604051905090565b600080fd5b600080fd5b600073ffffffffffffffffffffffffffffffffffffffff82169050919050565b6000612820826127f5565b9050919050565b61283081612815565b811461283b57600080fd5b50565b60008135905061284d81612827565b92915050565b6000819050919050565b61286681612853565b811461287157600080fd5b50565b6000813590506128838161285d565b92915050565b600080604083850312156128a05761289f6127eb565b5b60006128ae8582860161283e565b92505060206128bf85828601612874565b9150509250929050565b6128d281612853565b82525050565b60006020820190506128ed60008301846128c9565b92915050565b60007fffffffff0000000000000000000000000000000000000000000000000000000082169050919050565b612928816128f3565b811461293357600080fd5b50565b6000813590506129458161291f565b92915050565b600060208284031215612961576129606127eb565b5b600061296f84828501612936565b91505092915050565b60008115159050919050565b61298d81612978565b82525050565b60006020820190506129a86000830184612984565b92915050565b600080fd5b600080fd5b6000601f19601f8301169050919050565b7f4e487b7100000000000000000000000000000000000000000000000000000000600052604160045260246000fd5b612a01826129b8565b810181811067ffffffffffffffff82111715612a2057612a1f6129c9565b5b80604052505050565b6000612a336127e1565b9050612a3f82826129f8565b919050565b600067ffffffffffffffff821115612a5f57612a5e6129c9565b5b612a68826129b8565b9050602081019050919050565b82818337600083830152505050565b6000612a97612a9284612a44565b612a29565b905082815260208101848484011115612ab357612ab26129b3565b5b612abe848285612a75565b509392505050565b600082601f830112612adb57612ada6129ae565b5b8135612aeb848260208601612a84565b91505092915050565b600060208284031215612b0a57612b096127eb565b5b600082013567ffffffffffffffff811115612b2857612b276127f0565b5b612b3484828501612ac6565b91505092915050565b600060208284031215612b5357612b526127eb565b5b6000612b6184828501612874565b91505092915050565b600081519050919050565b600082825260208201905092915050565b60005b83811015612ba4578082015181840152602081019050612b89565b83811115612bb3576000848401525b50505050565b6000612bc482612b6a565b612bce8185612b75565b9350612bde818560208601612b86565b612be7816129b8565b840191505092915050565b60006020820190508181036000830152612c0c8184612bb9565b905092915050565b600067ffffffffffffffff821115612c2f57612c2e6129c9565b5b602082029050602081019050919050565b600080fd5b6000612c58612c5384612c14565b612a29565b90508083825260208201905060208402830185811115612c7b57612c7a612c40565b5b835b81811015612ca45780612c908882612874565b845260208401935050602081019050612c7d565b5050509392505050565b600082601f830112612cc357612cc26129ae565b5b8135612cd3848260208601612c45565b91505092915050565b600067ffffffffffffffff821115612cf757612cf66129c9565b5b612d00826129b8565b9050602081019050919050565b6000612d20612d1b84612cdc565b612a29565b905082815260208101848484011115612d3c57612d3b6129b3565b5b612d47848285612a75565b509392505050565b600082601f830112612d6457612d636129ae565b5b8135612d74848260208601612d0d565b91505092915050565b600080600080600060a08688031215612d9957612d986127eb565b5b6000612da78882890161283e565b9550506020612db88882890161283e565b945050604086013567ffffffffffffffff811115612dd957612dd86127f0565b5b612de588828901612cae565b935050606086013567ffffffffffffffff811115612e0657612e056127f0565b5b612e1288828901612cae565b925050608086013567ffffffffffffffff811115612e3357612e326127f0565b5b612e3f88828901612d4f565b9150509295509295909350565b600067ffffffffffffffff821115612e6757612e666129c9565b5b602082029050602081019050919050565b6000612e8b612e8684612e4c565b612a29565b90508083825260208201905060208402830185811115612eae57612ead612c40565b5b835b81811015612ed75780612ec3888261283e565b845260208401935050602081019050612eb0565b5050509392505050565b600082601f830112612ef657612ef56129ae565b5b8135612f06848260208601612e78565b91505092915050565b60008060408385031215612f2657612f256127eb565b5b600083013567ffffffffffffffff811115612f4457612f436127f0565b5b612f5085828601612ee1565b925050602083013567ffffffffffffffff811115612f7157612f706127f0565b5b612f7d85828601612cae565b9150509250929050565b600081519050919050565b600082825260208201905092915050565b6000819050602082019050919050565b612fbc81612853565b82525050565b6000612fce8383612fb3565b60208301905092915050565b6000602082019050919050565b6000612ff282612f87565b612ffc8185612f92565b935061300783612fa3565b8060005b8381101561303857815161301f8882612fc2565b975061302a83612fda565b92505060018101905061300b565b5085935050505092915050565b6000602082019050818103600083015261305f8184612fe7565b905092915050565b60008060008060808587031215613081576130806127eb565b5b600085013567ffffffffffffffff81111561309f5761309e6127f0565b5b6130ab87828801612ac6565b945050602085013567ffffffffffffffff8111156130cc576130cb6127f0565b5b6130d887828801612ac6565b93505060406130e987828801612874565b92505060606130fa87828801612874565b91505092959194509250565b61310f81612815565b82525050565b600060208201905061312a6000830184613106565b92915050565b600060208284031215613146576131456127eb565b5b60006131548482850161283e565b91505092915050565b61316681612978565b811461317157600080fd5b50565b6000813590506131838161315d565b92915050565b600080604083850312156131a05761319f6127eb565b5b60006131ae8582860161283e565b92505060206131bf85828601613174565b9150509250929050565b600080604083850312156131e0576131df6127eb565b5b60006131ee8582860161283e565b92505060206131ff8582860161283e565b9150509250929050565b600080600080600060a08688031215613225576132246127eb565b5b60006132338882890161283e565b95505060206132448882890161283e565b945050604061325588828901612874565b935050606061326688828901612874565b925050608086013567ffffffffffffffff811115613287576132866127f0565b5b61329388828901612d4f565b9150509295509295909350565b600080600080600060a086880312156132bc576132bb6127eb565b5b60006132ca88828901612874565b955050602086013567ffffffffffffffff8111156132eb576132ea6127f0565b5b6132f788828901612ac6565b945050604086013567ffffffffffffffff811115613318576133176127f0565b5b61332488828901612ac6565b935050606061333588828901612874565b925050608061334688828901612874565b9150509295509295909350565b7f455243313135353a2061646472657373207a65726f206973206e6f742061207660008201527f616c6964206f776e657200000000000000000000000000000000000000000000602082015250565b60006133af602a83612b75565b91506133ba82613353565b604082019050919050565b600060208201905081810360008301526133de816133a2565b9050919050565b7f4e487b7100000000000000000000000000000000000000000000000000000000600052602260045260246000fd5b6000600282049050600182168061342c57607f821691505b60208210810361343f5761343e6133e5565b5b50919050565b7f70726f76696465206120636f727265637420706c616e49440000000000000000600082015250565b600061347b601883612b75565b915061348682613445565b602082019050919050565b600060208201905081810360008301526134aa8161346e565b9050919050565b7f796f75722063757272656e7420706c616e206861736e2774206578706972656460008201527f2079657400000000000000000000000000000000000000000000000000000000602082015250565b600061350d602483612b75565b9150613518826134b1565b604082019050919050565b6000602082019050818103600083015261353c81613500565b9050919050565b7f706c656173652073656e6420636f727265637420616d6f756e74206f6620657460008201527f6865720000000000000000000000000000000000000000000000000000000000602082015250565b600061359f602383612b75565b91506135aa82613543565b604082019050919050565b600060208201905081810360008301526135ce81613592565b9050919050565b600081905092915050565b50565b60006135f06000836135d5565b91506135fb826135e0565b600082019050919050565b6000613611826135e3565b9150819050919050565b7f7472616e73666572206661696c65640000000000000000000000000000000000600082015250565b6000613651600f83612b75565b915061365c8261361b565b602082019050919050565b6000602082019050818103600083015261368081613644565b9050919050565b7f455243313135353a2063616c6c6572206973206e6f7420746f6b656e206f776e60008201527f6572206f7220617070726f766564000000000000000000000000000000000000602082015250565b60006136e3602e83612b75565b91506136ee82613687565b604082019050919050565b60006020820190508181036000830152613712816136d6565b9050919050565b7f455243313135353a206163636f756e747320616e6420696473206c656e67746860008201527f206d69736d617463680000000000000000000000000000000000000000000000602082015250565b6000613775602983612b75565b915061378082613719565b604082019050919050565b600060208201905081810360008301526137a481613768565b9050919050565b7f4e487b7100000000000000000000000000000000000000000000000000000000600052603260045260246000fd5b7f4e487b7100000000000000000000000000000000000000000000000000000000600052601160045260246000fd5b600061381482612853565b91507fffffffffffffffffffffffffffffffffffffffffffffffffffffffffffffffff8203613846576138456137da565b5b600182019050919050565b7f64656f736e2774206861766520616e792061637469766520706c616e00000000600082015250565b6000613887601c83612b75565b915061389282613851565b602082019050919050565b600060208201905081810360008301526138b68161387a565b9050919050565b7f4f776e61626c653a206e6577206f776e657220697320746865207a65726f206160008201527f6464726573730000000000000000000000000000000000000000000000000000602082015250565b6000613919602683612b75565b9150613924826138bd565b604082019050919050565b600060208201905081810360008301526139488161390c565b9050919050565b7f4f776e61626c653a2063616c6c6572206973206e6f7420746865206f776e6572600082015250565b6000613985602083612b75565b91506139908261394f565b602082019050919050565b600060208201905081810360008301526139b481613978565b9050919050565b60006139c682612853565b91506139d183612853565b9250827fffffffffffffffffffffffffffffffffffffffffffffffffffffffffffffffff03821115613a0657613a056137da565b5b828201905092915050565b7f455243313135353a206275726e2066726f6d20746865207a65726f206164647260008201527f6573730000000000000000000000000000000000000000000000000000000000602082015250565b6000613a6d602383612b75565b9150613a7882613a11565b604082019050919050565b60006020820190508181036000830152613a9c81613a60565b9050919050565b7f455243313135353a206275726e20616d6f756e7420657863656564732062616c60008201527f616e636500000000000000000000000000000000000000000000000000000000602082015250565b6000613aff602483612b75565b9150613b0a82613aa3565b604082019050919050565b60006020820190508181036000830152613b2e81613af2565b9050919050565b6000604082019050613b4a60008301856128c9565b613b5760208301846128c9565b9392505050565b6000613b6982612853565b9150613b7483612853565b925082821015613b8757613b866137da565b5b828203905092915050565b7f455243313135353a206d696e7420746f20746865207a65726f2061646472657360008201527f7300000000000000000000000000000000000000000000000000000000000000602082015250565b6000613bee602183612b75565b9150613bf982613b92565b604082019050919050565b60006020820190508181036000830152613c1d81613be1565b9050919050565b7f455243313135353a2069647320616e6420616d6f756e7473206c656e6774682060008201527f6d69736d61746368000000000000000000000000000000000000000000000000602082015250565b6000613c80602883612b75565b9150613c8b82613c24565b604082019050919050565b60006020820190508181036000830152613caf81613c73565b9050919050565b7f455243313135353a207472616e7366657220746f20746865207a65726f20616460008201527f6472657373000000000000000000000000000000000000000000000000000000602082015250565b6000613d12602583612b75565b9150613d1d82613cb6565b604082019050919050565b60006020820190508181036000830152613d4181613d05565b9050919050565b7f455243313135353a20696e73756666696369656e742062616c616e636520666f60008201527f72207472616e7366657200000000000000000000000000000000000000000000602082015250565b6000613da4602a83612b75565b9150613daf82613d48565b604082019050919050565b60006020820190508181036000830152613dd381613d97565b9050919050565b60006040820190508181036000830152613df48185612fe7565b90508181036020830152613e088184612fe7565b90509392505050565b7f455243313135353a2073657474696e6720617070726f76616c2073746174757360008201527f20666f722073656c660000000000000000000000000000000000000000000000602082015250565b6000613e6d602983612b75565b9150613e7882613e11565b604082019050919050565b60006020820190508181036000830152613e9c81613e60565b9050919050565b600081519050919050565b600082825260208201905092915050565b6000613eca82613ea3565b613ed48185613eae565b9350613ee4818560208601612b86565b613eed816129b8565b840191505092915050565b600060a082019050613f0d6000830188613106565b613f1a6020830187613106565b613f2760408301866128c9565b613f3460608301856128c9565b8181036080830152613f468184613ebf565b90509695505050505050565b600081519050613f618161291f565b92915050565b600060208284031215613f7d57613f7c6127eb565b5b6000613f8b84828501613f52565b91505092915050565b60008160e01c9050919050565b600060033d1115613fc05760046000803e613fbd600051613f94565b90505b90565b600060443d1061405057613fd56127e1565b60043d036004823e80513d602482011167ffffffffffffffff82111715613ffd575050614050565b808201805167ffffffffffffffff81111561401b5750505050614050565b80602083010160043d038501811115614038575050505050614050565b614047826020018501866129f8565b82955050505050505b90565b7f455243313135353a207472616e7366657220746f206e6f6e2d4552433131353560008201527f526563656976657220696d706c656d656e746572000000000000000000000000602082015250565b60006140af603483612b75565b91506140ba82614053565b604082019050919050565b600060208201905081810360008301526140de816140a2565b9050919050565b7f455243313135353a204552433131353552656365697665722072656a6563746560008201527f6420746f6b656e73000000000000000000000000000000000000000000000000602082015250565b6000614141602883612b75565b915061414c826140e5565b604082019050919050565b6000602082019050818103600083015261417081614134565b9050919050565b600060a08201905061418c6000830188613106565b6141996020830187613106565b81810360408301526141ab8186612fe7565b905081810360608301526141bf8185612fe7565b905081810360808301526141d38184613ebf565b9050969550505050505056fea2646970667358221220384e94bf748beede30b4a4259d1d87eaef8b91751aafd2128d38a992cdd3821764736f6c634300080d0033",
  "immutableReferences": {},
  "source": "// SPDX-License-Identifier: MIT\npragma solidity ^0.8.13;\n\nimport \"@openzeppelin/contracts/utils/math/SafeMath.sol\";\nimport \"@openzeppelin/contracts/token/ERC1155/ERC1155.sol\";\nimport \"@openzeppelin/contracts/access/Ownable.sol\";\n\ncontract EstuarySubscription is ERC1155, Ownable {\n\n    using SafeMath for uint256;\n\n    struct plan {\n        string name;\n        string uri; \n        uint256 subscribers;\n        uint256 price;\n        uint time;\n    }\n\n    struct subscriber {\n        uint256 plan;\n        uint256 date;\n    }\n\n    mapping(uint256 => plan) internal plans;\n\n    mapping(address => subscriber) internal subscribers;\n\n    uint256 public totalPlans;\n\n    constructor(string memory name, string memory symbol, string memory uri) ERC1155(uri) {}\n\n\n    modifier correctId(uint id) {\n        require(id <= totalPlans && id>0, \"provide a correct planID\");\n        _;\n    }\n\n    function setURI(string memory uri) external onlyOwner {\n        _setURI(uri);\n    }\n\n    function ifExpired(uint id) internal view returns(bool) {\n        if(subscribers[msg.sender].plan == id) {\n            if((block.timestamp).sub(subscribers[msg.sender].date) < plans[id].time) {\n                return false;\n            } else {\n                return true;\n            }\n        } else {\n            return true;\n        }\n    }\n\n    function addPlan(string memory _name, string memory uri, uint256 price, uint time) external onlyOwner {\n        totalPlans = totalPlans.add(1);\n        uint256 id = totalPlans.add(1);\n        plans[id] = plan(_name, uri, 0, price, time);\n    }\n\n    function updatePlan(uint id, string memory _name, string memory uri, uint256 price, uint time) external onlyOwner {\n        plans[id] = plan(_name, uri, plans[id].subscribers, price, time);\n    }\n\n    function subscribe(uint256 planId) external correctId(planId) payable {\n        require(ifExpired(planId) == true, \"your current plan hasn't expired yet\");\n        require(msg.value == plans[planId].price, \"please send correct amount of ether\");\n        plans[planId].subscribers = (plans[planId].subscribers).add(1);\n        subscribers[msg.sender] = subscriber(planId, block.timestamp);\n        _burn(msg.sender, subscribers[msg.sender].plan, balanceOf(msg.sender, subscribers[msg.sender].plan));\n        plans[subscribers[msg.sender].plan].subscribers = (plans[subscribers[msg.sender].plan].subscribers).sub(balanceOf(msg.sender, subscribers[msg.sender].plan));\n        _mint(msg.sender, planId, 1, \"\");\n        payable(msg.sender).transfer(msg.value);\n    }\n\n    function currentPlan(address user) public view returns(uint) {\n        require((block.timestamp).sub(subscribers[msg.sender].date) < plans[subscribers[msg.sender].plan].time, \"deosn't have any active plan\");\n        return subscribers[user].plan;\n    }\n\n    function tokenURI(uint id) public correctId(id) view returns(string memory) {\n        return plans[id].uri;\n    }\n\n    function tokenSupply(uint id) public correctId(id) view returns(uint) {\n        return plans[id].subscribers;\n    }\n\n    function tokenPrice(uint id) public correctId(id) view returns(uint) {\n        return plans[id].price;\n    }\n\n\n    function totalSupply() public view returns(uint) {\n        return totalPlans;\n    }\n\n    function balance() public view onlyOwner returns (uint) {\n        return address(this).balance;\n    }\n\n    function withdraw(uint256 amount) external onlyOwner {\n        (bool success, ) = payable(owner()).call{value: amount}(\"\");\n        require(success, \"transfer failed\");\n    }\n\n\n}",
  "sourcePath": "/Users/alvinreyes/Projects/estuary-contract-subscription/contracts/EstuarySubscription.sol",
  "compiler": {
    "name": "solc",
    "version": "0.8.13+commit.abaa5c0e.Emscripten.clang"
  },
  "schemaVersion": "3.4.7",
  "updatedAt": "2023-01-26T18:39:39.272Z",
  "devdoc": {
    "kind": "dev",
    "methods": {
      "balanceOf(address,uint256)": {
        "details": "See {IERC1155-balanceOf}. Requirements: - `account` cannot be the zero address."
      },
      "balanceOfBatch(address[],uint256[])": {
        "details": "See {IERC1155-balanceOfBatch}. Requirements: - `accounts` and `ids` must have the same length."
      },
      "isApprovedForAll(address,address)": {
        "details": "See {IERC1155-isApprovedForAll}."
      },
      "owner()": {
        "details": "Returns the address of the current owner."
      },
      "renounceOwnership()": {
        "details": "Leaves the contract without owner. It will not be possible to call `onlyOwner` functions anymore. Can only be called by the current owner. NOTE: Renouncing ownership will leave the contract without an owner, thereby removing any functionality that is only available to the owner."
      },
      "safeBatchTransferFrom(address,address,uint256[],uint256[],bytes)": {
        "details": "See {IERC1155-safeBatchTransferFrom}."
      },
      "safeTransferFrom(address,address,uint256,uint256,bytes)": {
        "details": "See {IERC1155-safeTransferFrom}."
      },
      "setApprovalForAll(address,bool)": {
        "details": "See {IERC1155-setApprovalForAll}."
      },
      "supportsInterface(bytes4)": {
        "details": "See {IERC165-supportsInterface}."
      },
      "transferOwnership(address)": {
        "details": "Transfers ownership of the contract to a new account (`newOwner`). Can only be called by the current owner."
      },
      "uri(uint256)": {
        "details": "See {IERC1155MetadataURI-uri}. This implementation returns the same URI for *all* token types. It relies on the token type ID substitution mechanism https://eips.ethereum.org/EIPS/eip-1155#metadata[defined in the EIP]. Clients calling this function must replace the `\\{id\\}` substring with the actual token type ID."
      }
    },
    "version": 1
  },
  "userdoc": {
    "kind": "user",
    "methods": {},
    "version": 1
  }
}